{
  "address": "0xE788496B4681A5ce2d14361C1B22ccb88F8A8ee7",
  "abi": [
    {
      "inputs": [
        {
          "internalType": "address",
          "name": "_safeFactory",
          "type": "address"
        },
        {
          "internalType": "address",
          "name": "_singleton",
          "type": "address"
        }
      ],
      "stateMutability": "nonpayable",
      "type": "constructor"
    },
    {
      "inputs": [
        {
          "internalType": "address[]",
          "name": "_owners",
          "type": "address[]"
        },
        {
          "internalType": "uint256",
          "name": "_threshold",
          "type": "uint256"
        },
        {
          "internalType": "uint256",
          "name": "saltNonce",
          "type": "uint256"
        },
        {
          "internalType": "address[]",
          "name": "_modules",
          "type": "address[]"
        }
      ],
      "name": "deploy",
      "outputs": [
        {
          "internalType": "contract GnosisSafe",
          "name": "proxy",
          "type": "address"
        }
      ],
      "stateMutability": "nonpayable",
      "type": "function"
    }
  ],
  "transactionHash": "0xa25716ae88c7a1352b30366b96a028cb291471015a0822bd34b937d76f8ab3d0",
  "args": [
    "0xa6B71E26C5e0845f74c812102Ca7114b6a896AB2",
    "0x3E5c63644E683549055b9Be8653de26E0B4CD36E"
  ],
  "numDeployments": 1,
  "solcInputHash": "7d2082fb70d9dd5deb95c2d4ad6c204a",
  "bytecode": "0x608060405234801561001057600080fd5b506040516109ce3803806109ce83398101604081905261002f91610138565b6001600160a01b03821661008a5760405162461bcd60e51b815260206004820181905260248201527f496e76616c696420666163746f727920616464726573732070726f766964656460448201526064015b60405180910390fd5b6001600160a01b0381166100eb5760405162461bcd60e51b815260206004820152602260248201527f496e76616c69642073696e676c65746f6e20616464726573732070726f766964604482015261195960f21b6064820152608401610081565b600080546001600160a01b039384166001600160a01b0319918216179091556001805492909316911617905561016b565b80516001600160a01b038116811461013357600080fd5b919050565b6000806040838503121561014b57600080fd5b6101548361011c565b91506101626020840161011c565b90509250929050565b6108548061017a6000396000f3fe608060405234801561001057600080fd5b506004361061002b5760003560e01c806326ab526214610030575b600080fd5b61004361003e3660046104e5565b61005f565b6040516001600160a01b03909116815260200160405180910390f35b60008061006d87600161057e565b67ffffffffffffffff81111561008557610085610591565b6040519080825280602002602001820160405280156100ae578160200160208202803683370190505b50905060005b8781101561011f578888828181106100ce576100ce6105a7565b90506020020160208101906100e391906105d5565b8282815181106100f5576100f56105a7565b6001600160a01b039092166020928302919091019091015280610117816105f9565b9150506100b4565b5030818989905081518110610136576101366105a7565b60200260200101906001600160a01b031690816001600160a01b031681525050600063b63e800d60e01b898960016000806000806000604051602401610183989796959493929190610612565b60408051601f198184030181529181526020820180516001600160e01b03166001600160e01b0319909416939093179092526000546001549251631688f0b960e01b81529193506001600160a01b0390811692631688f0b9926101f192919091169085908b90600401610714565b6020604051808303816000875af1158015610210573d6000803e3d6000fd5b505050506040513d601f19601f820116820180604052508101906102349190610748565b925060005b8481101561030a576102b184878784818110610257576102576105a7565b905060200201602081019061026c91906105d5565b6040516001600160a01b03909116602482015260440160408051601f198184030181529190526020810180516001600160e01b031663610b592560e01b1790526103df565b6102f85760405162461bcd60e51b815260206004820152601360248201527232b730b136329036b7b23ab6329032b93937b960691b60448201526064015b60405180910390fd5b80610302816105f9565b915050610239565b50610392838a8a61031c600182610765565b81811061032b5761032b6105a7565b905060200201602081019061034091906105d5565b6040516001600160a01b039091166024820152306044820152606481018a905260840160408051601f198184030181529190526020810180516001600160e01b031663f8dc5dd960e01b1790526103df565b6103d35760405162461bcd60e51b81526020600482015260126024820152713ab83230ba329037bbb732b91032b93937b960711b60448201526064016102ef565b50509695505050505050565b604080513060208201526000818301819052600160f81b60608084019190915283518084039091018152608083019384905263353b090160e11b909352916001600160a01b03851691636a7612029161044d9187918691889183918291829182918291829190608401610778565b6020604051808303816000875af115801561046c573d6000803e3d6000fd5b505050506040513d601f19601f820116820180604052508101906104909190610825565b90505b92915050565b60008083601f8401126104ab57600080fd5b50813567ffffffffffffffff8111156104c357600080fd5b6020830191508360208260051b85010111156104de57600080fd5b9250929050565b600080600080600080608087890312156104fe57600080fd5b863567ffffffffffffffff8082111561051657600080fd5b6105228a838b01610499565b90985096506020890135955060408901359450606089013591508082111561054957600080fd5b5061055689828a01610499565b979a9699509497509295939492505050565b634e487b7160e01b600052601160045260246000fd5b8082018082111561049357610493610568565b634e487b7160e01b600052604160045260246000fd5b634e487b7160e01b600052603260045260246000fd5b6001600160a01b03811681146105d257600080fd5b50565b6000602082840312156105e757600080fd5b81356105f2816105bd565b9392505050565b60006001820161060b5761060b610568565b5060010190565b6101008082528101889052600061012082018a825b8b81101561065857813561063a816105bd565b6001600160a01b031683526020928301929190910190600101610627565b505060ff891660208401526001600160a01b03881660408401528281036060840152600081526020810191505061069a60808301876001600160a01b03169052565b6001600160a01b03851660a083015260ff841660c08301526001600160a01b03831660e08301529998505050505050505050565b6000815180845260005b818110156106f4576020818501810151868301820152016106d8565b506000602082860101526020601f19601f83011685010191505092915050565b6001600160a01b0384168152606060208201819052600090610738908301856106ce565b9050826040830152949350505050565b60006020828403121561075a57600080fd5b81516105f2816105bd565b8181038181111561049357610493610568565b6001600160a01b038b168152602081018a9052610140604082018190526000906107a48382018c6106ce565b905060028a106107c457634e487b7160e01b600052602160045260246000fd5b8960608401528860808401528760a08401528660c08401526107f160e08401876001600160a01b03169052565b6001600160a01b03851661010084015282810361012084015261081481856106ce565b9d9c50505050505050505050505050565b60006020828403121561083757600080fd5b815180151581146105f257600080fdfea164736f6c6343000812000a",
  "devdoc": {
    "kind": "dev",
    "methods": {},
    "version": 1
  },
  "userdoc": {
    "kind": "user",
    "methods": {},
    "version": 1
  },
  "storageLayout": {
    "storage": [
      {
        "astId": 73,
        "contract": "contracts/FortiusSafeFactory.sol:FortiusSafeFactory",
        "label": "safeFactory",
        "offset": 0,
        "slot": "0",
        "type": "t_contract(GnosisSafeProxyFactory)70"
      },
      {
        "astId": 75,
        "contract": "contracts/FortiusSafeFactory.sol:FortiusSafeFactory",
        "label": "singleton",
        "offset": 0,
        "slot": "1",
        "type": "t_address"
      }
    ],
    "types": {
      "t_address": {
        "encoding": "inplace",
        "label": "address",
        "numberOfBytes": "20"
      },
      "t_contract(GnosisSafeProxyFactory)70": {
        "encoding": "inplace",
        "label": "contract GnosisSafeProxyFactory",
        "numberOfBytes": "20"
      }
    }
  }
}