{
  "address": "0x1f570EFCCCB2e927813dB68dFC027884D6c1B463",
  "abi": [
    {
      "inputs": [
        {
          "internalType": "address",
          "name": "_safeFactory",
          "type": "address"
        },
        {
          "internalType": "address",
          "name": "_singleton",
          "type": "address"
        }
      ],
      "stateMutability": "nonpayable",
      "type": "constructor"
    },
    {
      "inputs": [
        {
          "internalType": "string",
          "name": "_name",
          "type": "string"
        },
        {
          "internalType": "address[]",
          "name": "_owners",
          "type": "address[]"
        },
        {
          "internalType": "uint256",
          "name": "_threshold",
          "type": "uint256"
        },
        {
          "internalType": "uint256",
          "name": "saltNonce",
          "type": "uint256"
        },
        {
          "internalType": "address[]",
          "name": "_modules",
          "type": "address[]"
        }
      ],
      "name": "deploy",
      "outputs": [
        {
          "internalType": "contract GnosisSafe",
          "name": "proxy",
          "type": "address"
        }
      ],
      "stateMutability": "nonpayable",
      "type": "function"
    },
    {
      "inputs": [
        {
          "internalType": "address",
          "name": "",
          "type": "address"
        }
      ],
      "name": "name",
      "outputs": [
        {
          "internalType": "string",
          "name": "",
          "type": "string"
        }
      ],
      "stateMutability": "view",
      "type": "function"
    },
    {
      "inputs": [],
      "name": "safeFactory",
      "outputs": [
        {
          "internalType": "contract GnosisSafeProxyFactory",
          "name": "",
          "type": "address"
        }
      ],
      "stateMutability": "view",
      "type": "function"
    },
    {
      "inputs": [],
      "name": "singleton",
      "outputs": [
        {
          "internalType": "address",
          "name": "",
          "type": "address"
        }
      ],
      "stateMutability": "view",
      "type": "function"
    }
  ],
  "transactionHash": "0xb5111e426b6fd6cfbf2b3a5bd0dce976048888588ce8b08ba61355f582da45c6",
  "args": [
    "0xa6B71E26C5e0845f74c812102Ca7114b6a896AB2",
    "0x3E5c63644E683549055b9Be8653de26E0B4CD36E"
  ],
  "numDeployments": 2,
  "solcInputHash": "24a8b602b907c24818db0fa6988bc8cf",
  "bytecode": "0x608060405234801561001057600080fd5b50604051610c87380380610c8783398101604081905261002f91610138565b6001600160a01b03821661008a5760405162461bcd60e51b815260206004820181905260248201527f496e76616c696420666163746f727920616464726573732070726f766964656460448201526064015b60405180910390fd5b6001600160a01b0381166100eb5760405162461bcd60e51b815260206004820152602260248201527f496e76616c69642073696e676c65746f6e20616464726573732070726f766964604482015261195960f21b6064820152608401610081565b600080546001600160a01b039384166001600160a01b0319918216179091556001805492909316911617905561016b565b80516001600160a01b038116811461013357600080fd5b919050565b6000806040838503121561014b57600080fd5b6101548361011c565b91506101626020840161011c565b90509250929050565b610b0d8061017a6000396000f3fe608060405234801561001057600080fd5b506004361061004c5760003560e01c80630198489214610051578063131e7e1c1461007a5780631ce28662146100a5578063b62654fb146100b8575b600080fd5b61006461005f3660046105db565b6100cb565b6040516100719190610645565b60405180910390f35b60005461008d906001600160a01b031681565b6040516001600160a01b039091168152602001610071565b61008d6100b33660046106a4565b610165565b60015461008d906001600160a01b031681565b600260205260009081526040902080546100e49061077c565b80601f01602080910402602001604051908101604052809291908181526020018280546101109061077c565b801561015d5780601f106101325761010080835404028352916020019161015d565b820191906000526020600020905b81548152906001019060200180831161014057829003601f168201915b505050505081565b6000806101738760016107cc565b67ffffffffffffffff81111561018b5761018b6107df565b6040519080825280602002602001820160405280156101b4578160200160208202803683370190505b50905060005b87811015610225578888828181106101d4576101d46107f5565b90506020020160208101906101e991906105db565b8282815181106101fb576101fb6107f5565b6001600160a01b03909216602092830291909101909101528061021d8161080b565b9150506101ba565b503081898990508151811061023c5761023c6107f5565b60200260200101906001600160a01b031690816001600160a01b031681525050600063b63e800d60e01b82600160008060008060006040516024016102879796959493929190610824565b60408051601f198184030181529181526020820180516001600160e01b03166001600160e01b0319909416939093179092526000546001549251631688f0b960e01b81529193506001600160a01b0390811692631688f0b9926102f592919091169085908b906004016108bd565b6020604051808303816000875af1158015610314573d6000803e3d6000fd5b505050506040513d601f19601f8201168201806040525081019061033891906108f1565b925060005b8481101561040e576103b58487878481811061035b5761035b6107f5565b905060200201602081019061037091906105db565b6040516001600160a01b03909116602482015260440160408051601f198184030181529190526020810180516001600160e01b031663610b592560e01b179052610509565b6103fc5760405162461bcd60e51b815260206004820152601360248201527222b730b136329036b7b23ab6329032b93937b960691b60448201526064015b60405180910390fd5b806104068161080b565b91505061033d565b50610496838a8a61042060018261090e565b81811061042f5761042f6107f5565b905060200201602081019061044491906105db565b6040516001600160a01b039091166024820152306044820152606481018a905260840160408051601f198184030181529190526020810180516001600160e01b031663f8dc5dd960e01b179052610509565b6104d75760405162461bcd60e51b81526020600482015260126024820152712ab83230ba329037bbb732b91032b93937b960711b60448201526064016103f3565b6001600160a01b03831660009081526002602052604090206104fa8b8d83610970565b50505098975050505050505050565b604080513060208201526000818301819052600160f81b60608084019190915283518084039091018152608083019384905263353b090160e11b909352916001600160a01b03851691636a761202916105779187918691889183918291829182918291829190608401610a31565b6020604051808303816000875af1158015610596573d6000803e3d6000fd5b505050506040513d601f19601f820116820180604052508101906105ba9190610ade565b90505b92915050565b6001600160a01b03811681146105d857600080fd5b50565b6000602082840312156105ed57600080fd5b81356105f8816105c3565b9392505050565b6000815180845260005b8181101561062557602081850181015186830182015201610609565b506000602082860101526020601f19601f83011685010191505092915050565b6020815260006105ba60208301846105ff565b60008083601f84011261066a57600080fd5b50813567ffffffffffffffff81111561068257600080fd5b6020830191508360208260051b850101111561069d57600080fd5b9250929050565b60008060008060008060008060a0898b0312156106c057600080fd5b883567ffffffffffffffff808211156106d857600080fd5b818b0191508b601f8301126106ec57600080fd5b8135818111156106fb57600080fd5b8c602082850101111561070d57600080fd5b60209283019a509850908a0135908082111561072857600080fd5b6107348c838d01610658565b909850965060408b0135955060608b0135945060808b013591508082111561075b57600080fd5b506107688b828c01610658565b999c989b5096995094979396929594505050565b600181811c9082168061079057607f821691505b6020821081036107b057634e487b7160e01b600052602260045260246000fd5b50919050565b634e487b7160e01b600052601160045260246000fd5b808201808211156105bd576105bd6107b6565b634e487b7160e01b600052604160045260246000fd5b634e487b7160e01b600052603260045260246000fd5b60006001820161081d5761081d6107b6565b5060010190565b6101008082528851908201819052600090610120830190602090818c01845b828110156108685781516001600160a01b031685529383019390830190600101610843565b50505060ff998a16908401526001600160a01b03978816604084015282810360608401526000815295871660808301525092851660a0840152941660c08201529290911660e090920191909152602001919050565b6001600160a01b03841681526060602082018190526000906108e1908301856105ff565b9050826040830152949350505050565b60006020828403121561090357600080fd5b81516105f8816105c3565b818103818111156105bd576105bd6107b6565b601f82111561096b57600081815260208120601f850160051c810160208610156109485750805b601f850160051c820191505b8181101561096757828155600101610954565b5050505b505050565b67ffffffffffffffff831115610988576109886107df565b61099c83610996835461077c565b83610921565b6000601f8411600181146109d057600085156109b85750838201355b600019600387901b1c1916600186901b178355610a2a565b600083815260209020601f19861690835b82811015610a0157868501358255602094850194600190920191016109e1565b5086821015610a1e5760001960f88860031b161c19848701351681555b505060018560011b0183555b5050505050565b6001600160a01b038b168152602081018a905261014060408201819052600090610a5d8382018c6105ff565b905060028a10610a7d57634e487b7160e01b600052602160045260246000fd5b8960608401528860808401528760a08401528660c0840152610aaa60e08401876001600160a01b03169052565b6001600160a01b038516610100840152828103610120840152610acd81856105ff565b9d9c50505050505050505050505050565b600060208284031215610af057600080fd5b815180151581146105f857600080fdfea164736f6c6343000812000a",
  "devdoc": {
    "kind": "dev",
    "methods": {},
    "version": 1
  },
  "userdoc": {
    "kind": "user",
    "methods": {},
    "version": 1
  },
  "storageLayout": {
    "storage": [
      {
        "astId": 73,
        "contract": "contracts/FortiusSafeFactory.sol:FortiusSafeFactory",
        "label": "safeFactory",
        "offset": 0,
        "slot": "0",
        "type": "t_contract(GnosisSafeProxyFactory)70"
      },
      {
        "astId": 75,
        "contract": "contracts/FortiusSafeFactory.sol:FortiusSafeFactory",
        "label": "singleton",
        "offset": 0,
        "slot": "1",
        "type": "t_address"
      },
      {
        "astId": 79,
        "contract": "contracts/FortiusSafeFactory.sol:FortiusSafeFactory",
        "label": "name",
        "offset": 0,
        "slot": "2",
        "type": "t_mapping(t_address,t_string_storage)"
      }
    ],
    "types": {
      "t_address": {
        "encoding": "inplace",
        "label": "address",
        "numberOfBytes": "20"
      },
      "t_contract(GnosisSafeProxyFactory)70": {
        "encoding": "inplace",
        "label": "contract GnosisSafeProxyFactory",
        "numberOfBytes": "20"
      },
      "t_mapping(t_address,t_string_storage)": {
        "encoding": "mapping",
        "key": "t_address",
        "label": "mapping(address => string)",
        "numberOfBytes": "32",
        "value": "t_string_storage"
      },
      "t_string_storage": {
        "encoding": "bytes",
        "label": "string",
        "numberOfBytes": "32"
      }
    }
  }
}